:100000000C9478010C94A0010C94A0010C94A00114
:100010000C94A0010C94A0010C94A0010C94A001DC
:100020000C94A0010C94A0010C9410050C94820572
:100030000C94A0010C94A0010C94A0010C94A001BC
:100040000C94A0010C94A0010C94A0010C94A001AC
:100050000C94A0010C94A0010C94A0010C94C60473
:100060000C94A0010C94A0010C94A0010C94A0018C
:100070000C94A0010C94A0010C94A0010C94A0017C
:100080000C94A0010C94A0010C94A0010C94A0016C
:100090000C94A0010C94A0010C94A0010C94A0015C
:1000A0000C94A0010C94A0010C94A001080B000278
:1000B0000202010009040000010202000005240000
:1000C0001001052401010104240206052406000193
:1000D0000705810310004009040100020A00000026
:1000E00007050202400000070583024000000403E8
:1000F000090412010002EF02014041233780000190
:100100000102030141726475696E6F204C4C43001B
:1001100041726475696E6F204D6963726F0041565C
:1001200052205369676E617475726552656164200F
:10013000526561647900456E746572656420707201
:100140006F6772616D6D696E67206D6F6465205BAE
:100150004F4B5D2E004661696C656420746F2065AD
:100160006E7465722070726F6772616D6D696E6713
:10017000206D6F64652E20446F75626C652D636819
:1001800065636B20776972696E67210041747465DD
:100190006D7074696E6720746F20656E746572206F
:1001A000494353502070726F6772616D6D696E675D
:1001B000206D6F6465202E2E2E0050726F67726165
:1001C0006D6D696E67206D6F6465206F66662E00C9
:1001D000436C6F636B2063616C6962726174696FF9
:1001E0006E203D20004C6F636B2062797465203D6A
:1001F000203078004546757365203D2030780048F2
:1002000046757365203D203078004C467573652037
:100210003D203078002D2D2D2D2D2D2D2D2D2043E1
:100220006F6D706C657465202D2D2D2D2D2D2D2D50
:100230002D002062797465732E00466C617368200E
:100240006D656D6F72792073697A65203D2000506D
:10025000726F636573736F72203D20001E950F2FC0
:10026000010080000062D9FF1E95873A01008000DE
:10027000000000001E97064501000002004299FFA1
:100280001E910A5001000800000000005369676ECB
:100290006174757265203D20004E4F20424F4152DF
:1002A000442044455445435445442121002D2D2DDF
:1002B0002D2D2D2D2D2D205374617274696E6720A4
:1002C0002D2D2D2D2D2D2D2D2D0054797065205B7C
:1002D000525D205265616420426F61726420496EF4
:1002E000666F726D6174696F6E202E2E2E00EC09A0
:1002F00011241FBECFEFDAE0DEBFCDBF11E0A0E0DA
:10030000B1E0ECE9F4E102C005900D92AC35B10723
:10031000D9F721E0ACE5B1E001C01D92A73DB207DD
:10032000E1F711E0C8E7D1E004C02197FE010E9487
:100330002C0AC737D107C9F70E94F5070C944C0A5D
:100340000C94000020918601211103C08FEF9FEFD4
:1003500008955FB7F89422E02093E9002091F2001D
:1003600030E01216130614F421E030E0422FFC01B5
:1003700084E6415038F0289A809385019091F100ED
:100380009193F7CF2115310521F08091F200882358
:1003900019F05FBFC90108958BE68093E800F9CF9B
:1003A0002FB7F89483E08093E9009091E800892FBB
:1003B000807295FF04C09091F20080E4891B2FBFEA
:1003C000089580917D0181110DC082E080937901B3
:1003D00084E080937A0110927C0110927B0181E08D
:1003E00080937D0189E791E008953FB7F89480916B
:1003F000750190917601A0917701B091780126B5B1
:10040000A89B05C02F3F19F00196A11DB11D3FBF4C
:10041000BA2FA92F982F8827820F911DA11DB11DDA
:10042000BC01CD0142E0660F771F881F991F4A95D6
:10043000D1F708958F929F92AF92BF92CF92DF92A1
:10044000EF92FF926B017C010E94F5014B015C0170
:10045000C114D104E104F104F1F00E94F501DC01C2
:10046000CB0188199909AA09BB09883E9340A105C7
:10047000B10570F321E0C21AD108E108F10888EE55
:10048000880E83E0981EA11CB11CC114D104E104A4
:10049000F10419F7DDCFFF90EF90DF90CF90BF9080
:1004A000AF909F908F90089540915E0150915F01B1
:1004B00020915C0130915D0142175307B4F4909193
:1004C000E8009570E1F39091E80092FD19C08093E7
:1004D000F10080915E0190915F0101968F739927E1
:1004E000892B19F48EEF8093E80080915E01909142
:1004F0005F01019690935F0180935E0181E0089512
:1005000080E00895DF92EF92FF920F931F93CF93B5
:10051000DF93D82E8A017B01E40EF51EEB01CE1588
:10052000DF0571F0D7FE03C0FE01849101C0888110
:100530000E94540221968111F2CF8FEF9FEF01C0EC
:10054000C801DF91CF911F910F91FF90EF90DF9045
:1005500008950F931F93CF93DF931F92CDB7DEB70C
:1005600082E0898342E450E06CEA70E080E80E9417
:1005700082020E94E101DC0112960D911C911397F9
:100580000115110589F0D801ED91FC910280F381EC
:10059000E02DBE016F5F7F4FC801099597FD04C034
:1005A000F80100851185ECCF89810F90DF91CF9103
:1005B0001F910F910895615030F02091F100FC01DE
:1005C00020830196F8CF289A84E6809385010895C8
:1005D000CF92DF92EF92FF920F931F93CF93DF930F
:1005E0006C017A018B01C0E0D0E0CE15DF0581F00F
:1005F000D8016D918D01D601ED91FC910190F081B2
:10060000E02DC6010995892B11F02196EECF7E01D0
:10061000C701DF91CF911F910F91FF90EF90DF9075
:10062000CF9008958F929F92AF92BF92CF92DF9218
:10063000EF92FF920F931F93CF93DF936C017B0197
:100640008A0180910B01882309F45CC080918601A6
:10065000882309F457C08091620180FF05C0809112
:10066000E00082608093E000E801B12C8AEFA82EC0
:1006700093E0892E2AE3922E209711F4BB20D9F122
:100680000E94D00181110AC0AA94AA20D9F161E088
:1006900070E080E090E00E941A02EECF282F30E058
:1006A000C217D3070CF48C2F9FB7F8948092E900FF
:1006B0002091E80025FF1DC0282F30E0C21BD30B7E
:1006C000F701815020F041914093F100FACFE20E02
:1006D000F31EBB2019F09092E8000AC08091E80058
:1006E00085FD07C09092E800BB24B394209709F0E1
:1006F000B12C9FBFC1CF5D9A84E680936101101633
:10070000110644F081E090E0F6019383828380E05B
:1007100090E001C0C801DF91CF911F910F91FF9030
:10072000EF90DF90CF90BF90AF909F908F90089503
:10073000CF93DF931F92CDB7DEB76983DC01ED91D4
:10074000FC910280F381E02D41E050E0BE016F5F3B
:100750007F4F09950F90DF91CF9108950F931F93CD
:10076000CF93DF938C01C0E0D0E0F801EC0FFD1FC8
:100770006491662341F087E891E00E949803892BF9
:1007800011F02196F2CFCE01DF91CF911F910F9101
:10079000089583E08093E9008091F200882319F0A6
:1007A0008AE38093E80008950E94D00190E00895C4
:1007B000CF93DF931F92CDB7DEB7FC01848595857B
:1007C00097FD05C02FEF3FEF358724870BC0CE0183
:1007D00001960E94A201019719F4898190E002C05C
:1007E0008FEF9FEF0F90DF91CF9108950F931F939D
:1007F000CF93DF931F92CDB7DEB78C01FC018485C8
:10080000958597FF0EC0CE0101960E94A201019727
:1008100019F4898190E002C08FEF9FEFF80195876E
:100820008487F801848595850F90DF91CF911F9182
:100830000F910895FC018485958597FD0BC09FB7A6
:10084000F89482E08093E9008091F2009FBF90E0ED
:10085000019608959FB7F89482E08093E900809113
:10086000F2009FBF90E00895089580E090E0089521
:100870008EBD00000DB407FEFDCF8EB50895CF9359
:10088000DF93D62FC42F0E9438048D2F0E94380486
:100890008C2F0E94380480E0DF91CF910C943804B3
:1008A000009769F0FC0101900020E9F73197AF0152
:1008B000481B590BBC0187E891E00C94120380E0BF
:1008C00090E0089585E291E00C945004CF93DF937B
:1008D0000E94AE03EC010E9462048C0F9D1FDF9109
:1008E000CF9108958F929F92AF92BF920F931F93D3
:1008F000CF93DF93CDB7DEB7A1970FB6F894DEBFE5
:100900000FBECDBF19A2423008F44AE08E010F5D40
:100910001F4F842E912CA12CB12CA50194010E9473
:100920000A0AE62FB901CA0101501109EA3014F48C
:10093000E05D01C0E95CD801EC93232B242B252B2F
:1009400061F7C8010E945004A1960FB6F894DEBF6B
:100950000FBECDBFDF91CF911F910F91BF90AF9090
:100960009F908F900895CF93DF93682F70E080E081
:1009700090E040E10E947204EC010E9462048C0F3E
:100980009D1FDF91CF9108950E94320A1F920F920E
:100990000FB60F9211242F933F938F939F93AF9392
:1009A000BF938091710190917201A0917301B091F8
:1009B00074013091700123E0230F2D3720F401964C
:1009C000A11DB11D05C026E8230F0296A11DB11D72
:1009D000209370018093710190937201A093730131
:1009E000B09374018091750190917601A091770187
:1009F000B09178010196A11DB11D8093750190936E
:100A00007601A0937701B0937801BF91AF919F9148
:100A10008F913F912F910F900FBE0F901F901895BF
:100A20001F920F920FB60F9211248F939F93809174
:100A3000E1009091E100937F9093E10083FF0FC06C
:100A40001092E90091E09093EB001092EC0092E399
:100A50009093ED001092860198E09093F00082FF51
:100A600020C093E09093E9009091F200992319F04F
:100A70009AE39093E80090916101992339F0909165
:100A80006101915090936101992389F190918501C1
:100A9000992339F090918501915090938501992384
:100AA00041F184FF10C08091E2008E7E81608093CE
:100AB000E2008091E1008F7E8093E10080916201ED
:100AC0008E7E806111C080FF16C08091E2008E7E14
:100AD00080618093E2008091E1008E7E8093E1004E
:100AE000809162018E7E81608093620104C05D9876
:100AF000CDCF2898D6CF9F918F910F900FBE0F909A
:100B00001F9018951F920F920FB60F921124CF923B
:100B1000DF92EF92FF920F931F932F933F934F9388
:100B20005F936F937F938F939F93AF93BF93EF9355
:100B3000FF93CF93DF93CDB7DEB76C97DEBFCDBF0A
:100B40001092E9008091E80083FFFBC168E0CE01CC
:100B500045960E94DB0282EF8093E8008D8987FF33
:100B600005C09091E80090FFFCCF03C09EEF9093EA
:100B7000E800982F907609F0C6C09E894F89588D5D
:100B80002F89F88C91110CC0803829F48091630171
:100B90008093F10002C01092F1001092F10045C163
:100BA000913051F4811141C14130510509F03DC1ED
:100BB000809163018D7F0BC0933061F4811135C149
:100BC0004130510509F031C1809163018260809309
:100BD00063012BC1953049F48091E80080FFFCCF80
:100BE000822F80688093E30020C1963009F05EC0B8
:100BF0000B8D1C8D22E01092E90010925F01109283
:100C00005E01F21232C010925D0110925C010E94EE
:100C1000A90299E0BE016F5F7F4FDB01E92F1D92B2
:100C2000EA95E9F79983FA8291E09E8390EA9887A2
:100C30009AEF998720915E0130915F01275F3F4FC6
:100C40003C832B838D831092E90010925F011092F8
:100C50005E0110935D0100935C0149E050E080E08B
:100C60000E9482020E94A902E0C010935D010093DD
:100C70005C010E94E101DC0112960D911C91139719
:100C80000115110509F4BBC0D801ED91FC91048058
:100C9000F581E02DBE016B5E7F4FC801099500977D
:100CA00009F0C7C0F80100851185EACF973009F433
:100CB00045C1983021F481E08093F100B6C09930AD
:100CC00009F0B3C0837009F039C1EFE1F1E081E0D0
:100CD00031E096E32081211109C08EE78093EA007C
:100CE0001092EA008F89809386019FC08093E9006B
:100CF0003093EB0021912093EC009093ED008F5FF7
:100D0000873041F7EACF8B8D9C8D1092E9001092CD
:100D10005F0110925E0190935D0180935C01898D6B
:100D2000811153C08E899D89913A49F4813209F02D
:100D300005C147E050E064E071E080E0BBC0913263
:100D400009F0FCC0833269F48F89988DA0E0B0E08F
:100D50008093000190930101A0930201B0930301DD
:100D600064C0803269F48091E80082FFFCCF67E0C4
:100D700084E091E00E94DB028BEF8093E80055C095
:100D8000823209F052C08F8980930B01EEEFFFE7AA
:100D9000859194918B3F9C4D19F0E0E0F8E002C002
:100DA000EEEFFAE08091040190910501A091060117
:100DB000B0910701803B9440A105B10509F09EC0A8
:100DC00080910B0180FF79C099C00E94E101FC0174
:100DD000028113810115110509F4B0C0D801ED910C
:100DE000FC910190F081E02DBE016B5E7F4FC80148
:100DF000099581111AC0F80100851185EBCFF1E04A
:100E0000FF1609F44EC0F3E0FF1298C08F898823C3
:100E100009F44AC0823089F440E86DE080E191E055
:100E20000E94C007882309F489C08EEF8093E800F0
:100E300088C018161906CCF381C0813029F440E827
:100E40006BE084E091E0ECCF833009F077C00E9442
:100E5000E101DC011296ED90FC9013978E010F5F7B
:100E60001F4F6801E114F10479F0D701ED91FC9175
:100E70000680F781E02DB801C7010995080F111D03
:100E8000F701E084F184EECFD8011C92F6010190C5
:100E90000020E9F73197BF016C197D0940E0C601D8
:100EA000BFCF62EF70E002C06EEE70E0FB014491D4
:100EB00050E080E80E948202B8CFEE3F2AE0F207BD
:100EC00051F0808191818737A7E79A0721F09093AD
:100ED000FF0A8093FE0A87E797E7918380838091DA
:100EE0006000809360019BE088E10FB6F894A895BC
:100EF000809360000FBE9093600097CF80819181B6
:100F00008737974709F091CFA89580916000886155
:100F1000809360008091600180936000EE3FBAE0B2
:100F2000FB0739F08091FE0A9091FF0A918380833C
:100F30007CCF1092FF0A1092FE0A77CF81E2809355
:100F4000EB006C960FB6F894DEBF0FBECDBFDF91FD
:100F5000CF91FF91EF91BF91AF919F918F917F9131
:100F60006F915F914F913F912F911F910F91FF9042
:100F7000EF90DF90CF900F900FBE0F901F901895BD
:100F8000DF92EF92FF920F931F93CF93DF93D82EB0
:100F9000F92EE42E062F10E0C8010196880F0E945A
:100FA000540283E00E945402CD2DDF2D0C0F1D1F33
:100FB000C017D10789F0E7FE03C0FE01849101C08C
:100FC00088810E945402F82E80E00E9454028F21F2
:100FD00021968111EDCF01C081E0DF91CF911F916A
:100FE0000F91FF90EF90DF900895CF93DF9300D0A3
:100FF0001F92CDB7DEB7789484B5826084BD84B586
:10100000816084BD85B5826085BD85B5816085BD03
:1010100080916E00816080936E00109281008091BB
:101020008100826080938100809181008160809343
:101030008100809180008160809380008091910088
:1010400082608093910080919100816080939100F3
:10105000809190008160809390008091C1008460B5
:101060008093C1008091C10082608093C100809113
:10107000C10081608093C1008091C3008160809332
:10108000C3008091C00082608093C0008091C20044
:1010900081608093C20080917A00846080937A009E
:1010A00080917A00826080937A0080917A008160DA
:1010B00080937A0080917A00806880937A00109201
:1010C000860110926301109262018091D7008160C5
:1010D0008093D70080EA8093D80089B5806189BD6C
:1010E00089B5826089BD09B400FEFDCF61E070E082
:1010F00080E090E00E941A028091D8008F7C80618D
:101100008093D8008091E000807F8093E000809100
:10111000E1008E7E8093E1008DE08093E200559A9D
:10112000209A5D9828988FEF9FEF90939401809379
:10113000930110910B016AE070E080E090E00E9462
:101140001A021123B1F38EE191E00E94660420E5BA
:10115000622E8E010C5F1F4F3CE8E32E32E0F32E2F
:1011600040E0C42E40E0D42E8AEC92E00E94660457
:1011700087E891E00E94D8030E94370A82359105E2
:10118000B9F78DEA92E00E9466040E9462048CE83E
:1011900091E00E94AE0384B1876084B92398289AB5
:1011A0008CB5837F8CBD6CBC8CB58C7F82608CBD14
:1011B0008DB58E7F8DBD93E0B92E2FEF81EE94E03B
:1011C000215080409040E1F700C00000F894299839
:1011D000289AE5E3EA95F1F7000028987894FFE76C
:1011E00028E381E0F15020408040E1F700C000009A
:1011F000F8948CEA0E94380483E50E94380480E069
:101200000E943804A82E80E00E943804789493E568
:10121000A91691F088E291E00E945004BA94B110AE
:10122000CCCF0E94620485E591E00E94660489E9C2
:1012300092E00E946604C9C00E94620486E391E0C5
:101240000E9466048CE892E00E94AE03CE010196F3
:101250005C014C01712C472D60E080E30E943F044B
:10126000F40181934F017394F3E07F12F4CF40E0D7
:1012700060E08DE40E943F048AE291E00E94500405
:10128000F50161915F0170E080E090E040E10E9433
:1012900072048DE291E00E9450040A151B0561F76B
:1012A0000E9462048CE5A82E82E0B82E4CE050E04B
:1012B000B50184E691E00E94010A43E050E064E653
:1012C00071E0CE0101960E943F0A892BF9F48FE468
:1012D00092E00E94AE0380916701909168010E94A4
:1012E00050040E9462048AE392E00E94AE0360917F
:1012F000690170916A0180916B0190916C014AE0E3
:101300000E94720482E392E00E946604FCE0AF0E49
:10131000B11CEA14FB0451F640E060E080E50E9455
:101320003F04782E40E068E088E50E943F04882E64
:1013300040E068E080E50E943F04982E40E060E0D5
:1013400088E50E943F04A82E40E060E088E30E9408
:101350003F04B82E8AE092E00E94AE03872D0E94DF
:10136000B3048FEF91E00E94AE03882D0E94B30476
:1013700084EF91E00E94AE03892D0E94B30485EEB4
:1013800091E00E94AE038A2D0E94B30480ED91E0AB
:101390000E94AE038B2D0E94B3048CB58F7B8CBD55
:1013A00084B1897F84B9289820988AEB91E00E94C3
:1013B00066040E94620485E192E00E94660486E26F
:1013C00091E00E9450040E946204C114D10409F407
:1013D000CBCE0E940000C8CEE7E8F1E01382128273
:1013E00088EE93E0A0E0B0E084839583A683B78382
:1013F00080E191E0918380838FEF9FEF95878487D1
:101400000895FB01DC0102C005900D92415050404F
:10141000D8F70895A1E21A2EAA1BBB1BFD010DC02F
:10142000AA1FBB1FEE1FFF1FA217B307E407F50794
:1014300020F0A21BB30BE40BF50B661F771F881F70
:10144000991F1A9469F760957095809590959B0106
:10145000AC01BD01CF010895EE0FFF1F0590F4917F
:10146000E02D099481E090E0F8940C944C0A9111DD
:10147000089581568A5108F4805285580895FB01D9
:10148000DC0104C08D910190801921F4415050403D
:0C149000C8F7881B990B0895F894FFCF53
:10149C00FFFFFFFF00E10000000000000000000063
:1014AC0098031203D403C9031A04D803F60300C12A
:1014BC0080810000000D0A002E00307800200041D1
:1014CC00546D656761333238500041546D65676106
:1014DC00333255340041546D656761313238340014
:0C14EC00415474696E7932333133410091
:00000001FF
